{"abi":[{"inputs":[],"name":"convertToCoins","outputs":[],"stateMutability":"payable","type":"function"},{"inputs":[{"internalType":"uint256","name":"coins","type":"uint256"}],"name":"convertToEth","outputs":[],"stateMutability":"nonpayable","type":"function"},{"inputs":[{"internalType":"address payable","name":"_to","type":"address"}],"name":"sendEth","outputs":[],"stateMutability":"payable","type":"function"}],"devdoc":{"kind":"dev","methods":{},"version":1},"evm":{"assembly":"    /* \"Coinverse.sol\":67:817  contract Coinverse {... */\n  mstore(0x40, 0x80)\n  callvalue\n  dup1\n  iszero\n  tag_1\n  jumpi\n  0x00\n  dup1\n  revert\ntag_1:\n  pop\n  dataSize(sub_0)\n  dup1\n  dataOffset(sub_0)\n  0x00\n  codecopy\n  0x00\n  return\nstop\n\nsub_0: assembly {\n        /* \"Coinverse.sol\":67:817  contract Coinverse {... */\n      mstore(0x40, 0x80)\n      jumpi(tag_1, lt(calldatasize, 0x04))\n      shr(0xe0, calldataload(0x00))\n      dup1\n      0x76a54c60\n      eq\n      tag_2\n      jumpi\n      dup1\n      0xc2408af3\n      eq\n      tag_3\n      jumpi\n      dup1\n      0xfe18d6e6\n      eq\n      tag_4\n      jumpi\n    tag_1:\n      0x00\n      dup1\n      revert\n        /* \"Coinverse.sol\":648:814  function sendEth(address payable _to) public payable {... */\n    tag_2:\n      tag_5\n      0x04\n      dup1\n      calldatasize\n      sub\n      dup2\n      add\n      swap1\n      tag_6\n      swap2\n      swap1\n      tag_7\n      jump\t// in\n    tag_6:\n      tag_8\n      jump\t// in\n    tag_5:\n      stop\n        /* \"Coinverse.sol\":432:531  function convertToCoins() public payable {... */\n    tag_3:\n      tag_9\n      tag_10\n      jump\t// in\n    tag_9:\n      stop\n        /* \"Coinverse.sol\":168:404  function convertToEth(uint coins) public {... */\n    tag_4:\n      callvalue\n      dup1\n      iszero\n      tag_11\n      jumpi\n      0x00\n      dup1\n      revert\n    tag_11:\n      pop\n      tag_12\n      0x04\n      dup1\n      calldatasize\n      sub\n      dup2\n      add\n      swap1\n      tag_13\n      swap2\n      swap1\n      tag_14\n      jump\t// in\n    tag_13:\n      tag_15\n      jump\t// in\n    tag_12:\n      stop\n        /* \"Coinverse.sol\":648:814  function sendEth(address payable _to) public payable {... */\n    tag_8:\n        /* \"Coinverse.sol\":713:722  bool sent */\n      0x00\n        /* \"Coinverse.sol\":728:731  _to */\n      dup2\n        /* \"Coinverse.sol\":728:736  _to.call */\n      0xffffffffffffffffffffffffffffffffffffffff\n      and\n        /* \"Coinverse.sol\":744:753  msg.value */\n      callvalue\n        /* \"Coinverse.sol\":728:758  _to.call{value: msg.value}(\"\") */\n      mload(0x40)\n      tag_17\n      swap1\n      tag_18\n      jump\t// in\n    tag_17:\n      0x00\n      mload(0x40)\n      dup1\n      dup4\n      sub\n      dup2\n      dup6\n      dup8\n      gas\n      call\n      swap3\n      pop\n      pop\n      pop\n      returndatasize\n      dup1\n      0x00\n      dup2\n      eq\n      tag_21\n      jumpi\n      mload(0x40)\n      swap2\n      pop\n      and(add(returndatasize, 0x3f), not(0x1f))\n      dup3\n      add\n      0x40\n      mstore\n      returndatasize\n      dup3\n      mstore\n      returndatasize\n      0x00\n      0x20\n      dup5\n      add\n      returndatacopy\n      jump(tag_20)\n    tag_21:\n      0x60\n      swap2\n      pop\n    tag_20:\n      pop\n        /* \"Coinverse.sol\":712:758  (bool sent, ) = _to.call{value: msg.value}(\"\") */\n      pop\n      swap1\n      pop\n        /* \"Coinverse.sol\":777:781  sent */\n      dup1\n        /* \"Coinverse.sol\":769:806  require(sent, \"Failed to send Ether\") */\n      tag_22\n      jumpi\n      mload(0x40)\n      0x08c379a000000000000000000000000000000000000000000000000000000000\n      dup2\n      mstore\n      0x04\n      add\n      tag_23\n      swap1\n      tag_24\n      jump\t// in\n    tag_23:\n      mload(0x40)\n      dup1\n      swap2\n      sub\n      swap1\n      revert\n    tag_22:\n        /* \"Coinverse.sol\":701:814  {... */\n      pop\n        /* \"Coinverse.sol\":648:814  function sendEth(address payable _to) public payable {... */\n      pop\n      jump\t// out\n        /* \"Coinverse.sol\":432:531  function convertToCoins() public payable {... */\n    tag_10:\n      jump\t// out\n        /* \"Coinverse.sol\":168:404  function convertToEth(uint coins) public {... */\n    tag_15:\n        /* \"Coinverse.sol\":220:230  uint toEth */\n      0x00\n        /* \"Coinverse.sol\":251:258  1 ether */\n      0x0de0b6b3a7640000\n        /* \"Coinverse.sol\":242:246  1000 */\n      0x03e8\n        /* \"Coinverse.sol\":234:239  coins */\n      dup4\n        /* \"Coinverse.sol\":234:246  coins / 1000 */\n      tag_27\n      swap2\n      swap1\n      tag_28\n      jump\t// in\n    tag_27:\n        /* \"Coinverse.sol\":233:259  (coins / 1000) * (1 ether) */\n      tag_29\n      swap2\n      swap1\n      tag_30\n      jump\t// in\n    tag_29:\n        /* \"Coinverse.sol\":220:259  uint toEth = (coins / 1000) * (1 ether) */\n      swap1\n      pop\n        /* \"Coinverse.sol\":299:308  bool sent */\n      0x00\n        /* \"Coinverse.sol\":314:324  msg.sender */\n      caller\n        /* \"Coinverse.sol\":314:329  msg.sender.call */\n      0xffffffffffffffffffffffffffffffffffffffff\n      and\n        /* \"Coinverse.sol\":337:342  toEth */\n      dup3\n        /* \"Coinverse.sol\":314:348  msg.sender.call{value: toEth }(\"\") */\n      mload(0x40)\n      tag_31\n      swap1\n      tag_18\n      jump\t// in\n    tag_31:\n      0x00\n      mload(0x40)\n      dup1\n      dup4\n      sub\n      dup2\n      dup6\n      dup8\n      gas\n      call\n      swap3\n      pop\n      pop\n      pop\n      returndatasize\n      dup1\n      0x00\n      dup2\n      eq\n      tag_34\n      jumpi\n      mload(0x40)\n      swap2\n      pop\n      and(add(returndatasize, 0x3f), not(0x1f))\n      dup3\n      add\n      0x40\n      mstore\n      returndatasize\n      dup3\n      mstore\n      returndatasize\n      0x00\n      0x20\n      dup5\n      add\n      returndatacopy\n      jump(tag_33)\n    tag_34:\n      0x60\n      swap2\n      pop\n    tag_33:\n      pop\n        /* \"Coinverse.sol\":298:348  (bool sent, ) = msg.sender.call{value: toEth }(\"\") */\n      pop\n      swap1\n      pop\n        /* \"Coinverse.sol\":367:371  sent */\n      dup1\n        /* \"Coinverse.sol\":359:396  require(sent, \"Failed to send Ether\") */\n      tag_35\n      jumpi\n      mload(0x40)\n      0x08c379a000000000000000000000000000000000000000000000000000000000\n      dup2\n      mstore\n      0x04\n      add\n      tag_36\n      swap1\n      tag_24\n      jump\t// in\n    tag_36:\n      mload(0x40)\n      dup1\n      swap2\n      sub\n      swap1\n      revert\n    tag_35:\n        /* \"Coinverse.sol\":209:404  {... */\n      pop\n      pop\n        /* \"Coinverse.sol\":168:404  function convertToEth(uint coins) public {... */\n      pop\n      jump\t// out\n        /* \"#utility.yul\":88:205   */\n    tag_38:\n        /* \"#utility.yul\":197:198   */\n      0x00\n        /* \"#utility.yul\":194:195   */\n      dup1\n        /* \"#utility.yul\":187:199   */\n      revert\n        /* \"#utility.yul\":334:460   */\n    tag_40:\n        /* \"#utility.yul\":371:378   */\n      0x00\n        /* \"#utility.yul\":411:453   */\n      0xffffffffffffffffffffffffffffffffffffffff\n        /* \"#utility.yul\":404:409   */\n      dup3\n        /* \"#utility.yul\":400:454   */\n      and\n        /* \"#utility.yul\":389:454   */\n      swap1\n      pop\n        /* \"#utility.yul\":334:460   */\n      swap2\n      swap1\n      pop\n      jump\t// out\n        /* \"#utility.yul\":466:570   */\n    tag_41:\n        /* \"#utility.yul\":511:518   */\n      0x00\n        /* \"#utility.yul\":540:564   */\n      tag_61\n        /* \"#utility.yul\":558:563   */\n      dup3\n        /* \"#utility.yul\":540:564   */\n      tag_40\n      jump\t// in\n    tag_61:\n        /* \"#utility.yul\":529:564   */\n      swap1\n      pop\n        /* \"#utility.yul\":466:570   */\n      swap2\n      swap1\n      pop\n      jump\t// out\n        /* \"#utility.yul\":576:714   */\n    tag_42:\n        /* \"#utility.yul\":657:689   */\n      tag_63\n        /* \"#utility.yul\":683:688   */\n      dup2\n        /* \"#utility.yul\":657:689   */\n      tag_41\n      jump\t// in\n    tag_63:\n        /* \"#utility.yul\":650:655   */\n      dup2\n        /* \"#utility.yul\":647:690   */\n      eq\n        /* \"#utility.yul\":637:708   */\n      tag_64\n      jumpi\n        /* \"#utility.yul\":704:705   */\n      0x00\n        /* \"#utility.yul\":701:702   */\n      dup1\n        /* \"#utility.yul\":694:706   */\n      revert\n        /* \"#utility.yul\":637:708   */\n    tag_64:\n        /* \"#utility.yul\":576:714   */\n      pop\n      jump\t// out\n        /* \"#utility.yul\":720:875   */\n    tag_43:\n        /* \"#utility.yul\":774:779   */\n      0x00\n        /* \"#utility.yul\":812:818   */\n      dup2\n        /* \"#utility.yul\":799:819   */\n      calldataload\n        /* \"#utility.yul\":790:819   */\n      swap1\n      pop\n        /* \"#utility.yul\":828:869   */\n      tag_66\n        /* \"#utility.yul\":863:868   */\n      dup2\n        /* \"#utility.yul\":828:869   */\n      tag_42\n      jump\t// in\n    tag_66:\n        /* \"#utility.yul\":720:875   */\n      swap3\n      swap2\n      pop\n      pop\n      jump\t// out\n        /* \"#utility.yul\":881:1226   */\n    tag_7:\n        /* \"#utility.yul\":948:954   */\n      0x00\n        /* \"#utility.yul\":997:999   */\n      0x20\n        /* \"#utility.yul\":985:994   */\n      dup3\n        /* \"#utility.yul\":976:983   */\n      dup5\n        /* \"#utility.yul\":972:995   */\n      sub\n        /* \"#utility.yul\":968:1000   */\n      slt\n        /* \"#utility.yul\":965:1084   */\n      iszero\n      tag_68\n      jumpi\n        /* \"#utility.yul\":1003:1082   */\n      tag_69\n      tag_38\n      jump\t// in\n    tag_69:\n        /* \"#utility.yul\":965:1084   */\n    tag_68:\n        /* \"#utility.yul\":1123:1124   */\n      0x00\n        /* \"#utility.yul\":1148:1209   */\n      tag_70\n        /* \"#utility.yul\":1201:1208   */\n      dup5\n        /* \"#utility.yul\":1192:1198   */\n      dup3\n        /* \"#utility.yul\":1181:1190   */\n      dup6\n        /* \"#utility.yul\":1177:1199   */\n      add\n        /* \"#utility.yul\":1148:1209   */\n      tag_43\n      jump\t// in\n    tag_70:\n        /* \"#utility.yul\":1138:1209   */\n      swap2\n      pop\n        /* \"#utility.yul\":1094:1219   */\n      pop\n        /* \"#utility.yul\":881:1226   */\n      swap3\n      swap2\n      pop\n      pop\n      jump\t// out\n        /* \"#utility.yul\":1232:1309   */\n    tag_44:\n        /* \"#utility.yul\":1269:1276   */\n      0x00\n        /* \"#utility.yul\":1298:1303   */\n      dup2\n        /* \"#utility.yul\":1287:1303   */\n      swap1\n      pop\n        /* \"#utility.yul\":1232:1309   */\n      swap2\n      swap1\n      pop\n      jump\t// out\n        /* \"#utility.yul\":1315:1437   */\n    tag_45:\n        /* \"#utility.yul\":1388:1412   */\n      tag_73\n        /* \"#utility.yul\":1406:1411   */\n      dup2\n        /* \"#utility.yul\":1388:1412   */\n      tag_44\n      jump\t// in\n    tag_73:\n        /* \"#utility.yul\":1381:1386   */\n      dup2\n        /* \"#utility.yul\":1378:1413   */\n      eq\n        /* \"#utility.yul\":1368:1431   */\n      tag_74\n      jumpi\n        /* \"#utility.yul\":1427:1428   */\n      0x00\n        /* \"#utility.yul\":1424:1425   */\n      dup1\n        /* \"#utility.yul\":1417:1429   */\n      revert\n        /* \"#utility.yul\":1368:1431   */\n    tag_74:\n        /* \"#utility.yul\":1315:1437   */\n      pop\n      jump\t// out\n        /* \"#utility.yul\":1443:1582   */\n    tag_46:\n        /* \"#utility.yul\":1489:1494   */\n      0x00\n        /* \"#utility.yul\":1527:1533   */\n      dup2\n        /* \"#utility.yul\":1514:1534   */\n      calldataload\n        /* \"#utility.yul\":1505:1534   */\n      swap1\n      pop\n        /* \"#utility.yul\":1543:1576   */\n      tag_76\n        /* \"#utility.yul\":1570:1575   */\n      dup2\n        /* \"#utility.yul\":1543:1576   */\n      tag_45\n      jump\t// in\n    tag_76:\n        /* \"#utility.yul\":1443:1582   */\n      swap3\n      swap2\n      pop\n      pop\n      jump\t// out\n        /* \"#utility.yul\":1588:1917   */\n    tag_14:\n        /* \"#utility.yul\":1647:1653   */\n      0x00\n        /* \"#utility.yul\":1696:1698   */\n      0x20\n        /* \"#utility.yul\":1684:1693   */\n      dup3\n        /* \"#utility.yul\":1675:1682   */\n      dup5\n        /* \"#utility.yul\":1671:1694   */\n      sub\n        /* \"#utility.yul\":1667:1699   */\n      slt\n        /* \"#utility.yul\":1664:1783   */\n      iszero\n      tag_78\n      jumpi\n        /* \"#utility.yul\":1702:1781   */\n      tag_79\n      tag_38\n      jump\t// in\n    tag_79:\n        /* \"#utility.yul\":1664:1783   */\n    tag_78:\n        /* \"#utility.yul\":1822:1823   */\n      0x00\n        /* \"#utility.yul\":1847:1900   */\n      tag_80\n        /* \"#utility.yul\":1892:1899   */\n      dup5\n        /* \"#utility.yul\":1883:1889   */\n      dup3\n        /* \"#utility.yul\":1872:1881   */\n      dup6\n        /* \"#utility.yul\":1868:1890   */\n      add\n        /* \"#utility.yul\":1847:1900   */\n      tag_46\n      jump\t// in\n    tag_80:\n        /* \"#utility.yul\":1837:1900   */\n      swap2\n      pop\n        /* \"#utility.yul\":1793:1910   */\n      pop\n        /* \"#utility.yul\":1588:1917   */\n      swap3\n      swap2\n      pop\n      pop\n      jump\t// out\n        /* \"#utility.yul\":1923:2070   */\n    tag_47:\n        /* \"#utility.yul\":2024:2035   */\n      0x00\n        /* \"#utility.yul\":2061:2064   */\n      dup2\n        /* \"#utility.yul\":2046:2064   */\n      swap1\n      pop\n        /* \"#utility.yul\":1923:2070   */\n      swap3\n      swap2\n      pop\n      pop\n      jump\t// out\n        /* \"#utility.yul\":2076:2190   */\n    tag_48:\n      pop\n      jump\t// out\n        /* \"#utility.yul\":2196:2594   */\n    tag_49:\n        /* \"#utility.yul\":2355:2358   */\n      0x00\n        /* \"#utility.yul\":2376:2459   */\n      tag_84\n        /* \"#utility.yul\":2457:2458   */\n      0x00\n        /* \"#utility.yul\":2452:2455   */\n      dup4\n        /* \"#utility.yul\":2376:2459   */\n      tag_47\n      jump\t// in\n    tag_84:\n        /* \"#utility.yul\":2369:2459   */\n      swap2\n      pop\n        /* \"#utility.yul\":2468:2561   */\n      tag_85\n        /* \"#utility.yul\":2557:2560   */\n      dup3\n        /* \"#utility.yul\":2468:2561   */\n      tag_48\n      jump\t// in\n    tag_85:\n        /* \"#utility.yul\":2586:2587   */\n      0x00\n        /* \"#utility.yul\":2581:2584   */\n      dup3\n        /* \"#utility.yul\":2577:2588   */\n      add\n        /* \"#utility.yul\":2570:2588   */\n      swap1\n      pop\n        /* \"#utility.yul\":2196:2594   */\n      swap2\n      swap1\n      pop\n      jump\t// out\n        /* \"#utility.yul\":2600:2979   */\n    tag_18:\n        /* \"#utility.yul\":2784:2787   */\n      0x00\n        /* \"#utility.yul\":2806:2953   */\n      tag_87\n        /* \"#utility.yul\":2949:2952   */\n      dup3\n        /* \"#utility.yul\":2806:2953   */\n      tag_49\n      jump\t// in\n    tag_87:\n        /* \"#utility.yul\":2799:2953   */\n      swap2\n      pop\n        /* \"#utility.yul\":2970:2973   */\n      dup2\n        /* \"#utility.yul\":2963:2973   */\n      swap1\n      pop\n        /* \"#utility.yul\":2600:2979   */\n      swap2\n      swap1\n      pop\n      jump\t// out\n        /* \"#utility.yul\":2985:3154   */\n    tag_50:\n        /* \"#utility.yul\":3069:3080   */\n      0x00\n        /* \"#utility.yul\":3103:3109   */\n      dup3\n        /* \"#utility.yul\":3098:3101   */\n      dup3\n        /* \"#utility.yul\":3091:3110   */\n      mstore\n        /* \"#utility.yul\":3143:3147   */\n      0x20\n        /* \"#utility.yul\":3138:3141   */\n      dup3\n        /* \"#utility.yul\":3134:3148   */\n      add\n        /* \"#utility.yul\":3119:3148   */\n      swap1\n      pop\n        /* \"#utility.yul\":2985:3154   */\n      swap3\n      swap2\n      pop\n      pop\n      jump\t// out\n        /* \"#utility.yul\":3160:3330   */\n    tag_51:\n        /* \"#utility.yul\":3300:3322   */\n      0x4661696c656420746f2073656e64204574686572000000000000000000000000\n        /* \"#utility.yul\":3296:3297   */\n      0x00\n        /* \"#utility.yul\":3288:3294   */\n      dup3\n        /* \"#utility.yul\":3284:3298   */\n      add\n        /* \"#utility.yul\":3277:3323   */\n      mstore\n        /* \"#utility.yul\":3160:3330   */\n      pop\n      jump\t// out\n        /* \"#utility.yul\":3336:3702   */\n    tag_52:\n        /* \"#utility.yul\":3478:3481   */\n      0x00\n        /* \"#utility.yul\":3499:3566   */\n      tag_91\n        /* \"#utility.yul\":3563:3565   */\n      0x14\n        /* \"#utility.yul\":3558:3561   */\n      dup4\n        /* \"#utility.yul\":3499:3566   */\n      tag_50\n      jump\t// in\n    tag_91:\n        /* \"#utility.yul\":3492:3566   */\n      swap2\n      pop\n        /* \"#utility.yul\":3575:3668   */\n      tag_92\n        /* \"#utility.yul\":3664:3667   */\n      dup3\n        /* \"#utility.yul\":3575:3668   */\n      tag_51\n      jump\t// in\n    tag_92:\n        /* \"#utility.yul\":3693:3695   */\n      0x20\n        /* \"#utility.yul\":3688:3691   */\n      dup3\n        /* \"#utility.yul\":3684:3696   */\n      add\n        /* \"#utility.yul\":3677:3696   */\n      swap1\n      pop\n        /* \"#utility.yul\":3336:3702   */\n      swap2\n      swap1\n      pop\n      jump\t// out\n        /* \"#utility.yul\":3708:4127   */\n    tag_24:\n        /* \"#utility.yul\":3874:3878   */\n      0x00\n        /* \"#utility.yul\":3912:3914   */\n      0x20\n        /* \"#utility.yul\":3901:3910   */\n      dup3\n        /* \"#utility.yul\":3897:3915   */\n      add\n        /* \"#utility.yul\":3889:3915   */\n      swap1\n      pop\n        /* \"#utility.yul\":3961:3970   */\n      dup2\n        /* \"#utility.yul\":3955:3959   */\n      dup2\n        /* \"#utility.yul\":3951:3971   */\n      sub\n        /* \"#utility.yul\":3947:3948   */\n      0x00\n        /* \"#utility.yul\":3936:3945   */\n      dup4\n        /* \"#utility.yul\":3932:3949   */\n      add\n        /* \"#utility.yul\":3925:3972   */\n      mstore\n        /* \"#utility.yul\":3989:4120   */\n      tag_94\n        /* \"#utility.yul\":4115:4119   */\n      dup2\n        /* \"#utility.yul\":3989:4120   */\n      tag_52\n      jump\t// in\n    tag_94:\n        /* \"#utility.yul\":3981:4120   */\n      swap1\n      pop\n        /* \"#utility.yul\":3708:4127   */\n      swap2\n      swap1\n      pop\n      jump\t// out\n        /* \"#utility.yul\":4133:4313   */\n    tag_53:\n        /* \"#utility.yul\":4181:4258   */\n      0x4e487b7100000000000000000000000000000000000000000000000000000000\n        /* \"#utility.yul\":4178:4179   */\n      0x00\n        /* \"#utility.yul\":4171:4259   */\n      mstore\n        /* \"#utility.yul\":4278:4282   */\n      0x12\n        /* \"#utility.yul\":4275:4276   */\n      0x04\n        /* \"#utility.yul\":4268:4283   */\n      mstore\n        /* \"#utility.yul\":4302:4306   */\n      0x24\n        /* \"#utility.yul\":4299:4300   */\n      0x00\n        /* \"#utility.yul\":4292:4307   */\n      revert\n        /* \"#utility.yul\":4319:4499   */\n    tag_54:\n        /* \"#utility.yul\":4367:4444   */\n      0x4e487b7100000000000000000000000000000000000000000000000000000000\n        /* \"#utility.yul\":4364:4365   */\n      0x00\n        /* \"#utility.yul\":4357:4445   */\n      mstore\n        /* \"#utility.yul\":4464:4468   */\n      0x11\n        /* \"#utility.yul\":4461:4462   */\n      0x04\n        /* \"#utility.yul\":4454:4469   */\n      mstore\n        /* \"#utility.yul\":4488:4492   */\n      0x24\n        /* \"#utility.yul\":4485:4486   */\n      0x00\n        /* \"#utility.yul\":4478:4493   */\n      revert\n        /* \"#utility.yul\":4505:4690   */\n    tag_28:\n        /* \"#utility.yul\":4545:4546   */\n      0x00\n        /* \"#utility.yul\":4562:4582   */\n      tag_98\n        /* \"#utility.yul\":4580:4581   */\n      dup3\n        /* \"#utility.yul\":4562:4582   */\n      tag_44\n      jump\t// in\n    tag_98:\n        /* \"#utility.yul\":4557:4582   */\n      swap2\n      pop\n        /* \"#utility.yul\":4596:4616   */\n      tag_99\n        /* \"#utility.yul\":4614:4615   */\n      dup4\n        /* \"#utility.yul\":4596:4616   */\n      tag_44\n      jump\t// in\n    tag_99:\n        /* \"#utility.yul\":4591:4616   */\n      swap3\n      pop\n        /* \"#utility.yul\":4635:4636   */\n      dup3\n        /* \"#utility.yul\":4625:4660   */\n      tag_100\n      jumpi\n        /* \"#utility.yul\":4640:4658   */\n      tag_101\n      tag_53\n      jump\t// in\n    tag_101:\n        /* \"#utility.yul\":4625:4660   */\n    tag_100:\n        /* \"#utility.yul\":4682:4683   */\n      dup3\n        /* \"#utility.yul\":4679:4680   */\n      dup3\n        /* \"#utility.yul\":4675:4684   */\n      div\n        /* \"#utility.yul\":4670:4684   */\n      swap1\n      pop\n        /* \"#utility.yul\":4505:4690   */\n      swap3\n      swap2\n      pop\n      pop\n      jump\t// out\n        /* \"#utility.yul\":4696:5044   */\n    tag_30:\n        /* \"#utility.yul\":4736:4743   */\n      0x00\n        /* \"#utility.yul\":4759:4779   */\n      tag_103\n        /* \"#utility.yul\":4777:4778   */\n      dup3\n        /* \"#utility.yul\":4759:4779   */\n      tag_44\n      jump\t// in\n    tag_103:\n        /* \"#utility.yul\":4754:4779   */\n      swap2\n      pop\n        /* \"#utility.yul\":4793:4813   */\n      tag_104\n        /* \"#utility.yul\":4811:4812   */\n      dup4\n        /* \"#utility.yul\":4793:4813   */\n      tag_44\n      jump\t// in\n    tag_104:\n        /* \"#utility.yul\":4788:4813   */\n      swap3\n      pop\n        /* \"#utility.yul\":4981:4982   */\n      dup2\n        /* \"#utility.yul\":4913:4979   */\n      0xffffffffffffffffffffffffffffffffffffffffffffffffffffffffffffffff\n        /* \"#utility.yul\":4909:4983   */\n      div\n        /* \"#utility.yul\":4906:4907   */\n      dup4\n        /* \"#utility.yul\":4903:4984   */\n      gt\n        /* \"#utility.yul\":4898:4899   */\n      dup3\n        /* \"#utility.yul\":4891:4900   */\n      iszero\n        /* \"#utility.yul\":4884:4901   */\n      iszero\n        /* \"#utility.yul\":4880:4985   */\n      and\n        /* \"#utility.yul\":4877:5008   */\n      iszero\n      tag_105\n      jumpi\n        /* \"#utility.yul\":4988:5006   */\n      tag_106\n      tag_54\n      jump\t// in\n    tag_106:\n        /* \"#utility.yul\":4877:5008   */\n    tag_105:\n        /* \"#utility.yul\":5036:5037   */\n      dup3\n        /* \"#utility.yul\":5033:5034   */\n      dup3\n        /* \"#utility.yul\":5029:5038   */\n      mul\n        /* \"#utility.yul\":5018:5038   */\n      swap1\n      pop\n        /* \"#utility.yul\":4696:5044   */\n      swap3\n      swap2\n      pop\n      pop\n      jump\t// out\n\n    auxdata: 0xa2646970667358221220ab3001336ad95e80a237acd4ce1109718ce1b1089a6f9cdc6e1bed2c985e0e1b64736f6c634300080b0033\n}\n","bytecode":{"linkReferences":{},"object":"608060405234801561001057600080fd5b506104e5806100206000396000f3fe6080604052600436106100345760003560e01c806376a54c6014610039578063c2408af314610055578063fe18d6e61461005f575b600080fd5b610053600480360381019061004e9190610273565b610088565b005b61005d610138565b005b34801561006b57600080fd5b50610086600480360381019061008191906102d6565b61013a565b005b60008173ffffffffffffffffffffffffffffffffffffffff16346040516100ae90610334565b60006040518083038185875af1925050503d80600081146100eb576040519150601f19603f3d011682016040523d82523d6000602084013e6100f0565b606091505b5050905080610134576040517f08c379a000000000000000000000000000000000000000000000000000000000815260040161012b906103a6565b60405180910390fd5b5050565b565b6000670de0b6b3a76400006103e8836101539190610424565b61015d9190610455565b905060003373ffffffffffffffffffffffffffffffffffffffff168260405161018590610334565b60006040518083038185875af1925050503d80600081146101c2576040519150601f19603f3d011682016040523d82523d6000602084013e6101c7565b606091505b505090508061020b576040517f08c379a0000000000000000000000000000000000000000000000000000000008152600401610202906103a6565b60405180910390fd5b505050565b600080fd5b600073ffffffffffffffffffffffffffffffffffffffff82169050919050565b600061024082610215565b9050919050565b61025081610235565b811461025b57600080fd5b50565b60008135905061026d81610247565b92915050565b60006020828403121561028957610288610210565b5b60006102978482850161025e565b91505092915050565b6000819050919050565b6102b3816102a0565b81146102be57600080fd5b50565b6000813590506102d0816102aa565b92915050565b6000602082840312156102ec576102eb610210565b5b60006102fa848285016102c1565b91505092915050565b600081905092915050565b50565b600061031e600083610303565b91506103298261030e565b600082019050919050565b600061033f82610311565b9150819050919050565b600082825260208201905092915050565b7f4661696c656420746f2073656e64204574686572000000000000000000000000600082015250565b6000610390601483610349565b915061039b8261035a565b602082019050919050565b600060208201905081810360008301526103bf81610383565b9050919050565b7f4e487b7100000000000000000000000000000000000000000000000000000000600052601260045260246000fd5b7f4e487b7100000000000000000000000000000000000000000000000000000000600052601160045260246000fd5b600061042f826102a0565b915061043a836102a0565b92508261044a576104496103c6565b5b828204905092915050565b6000610460826102a0565b915061046b836102a0565b9250817fffffffffffffffffffffffffffffffffffffffffffffffffffffffffffffffff04831182151516156104a4576104a36103f5565b5b82820290509291505056fea2646970667358221220ab3001336ad95e80a237acd4ce1109718ce1b1089a6f9cdc6e1bed2c985e0e1b64736f6c634300080b0033","opcodes":"PUSH1 0x80 PUSH1 0x40 MSTORE CALLVALUE DUP1 ISZERO PUSH2 0x10 JUMPI PUSH1 0x0 DUP1 REVERT JUMPDEST POP PUSH2 0x4E5 DUP1 PUSH2 0x20 PUSH1 0x0 CODECOPY PUSH1 0x0 RETURN INVALID PUSH1 0x80 PUSH1 0x40 MSTORE PUSH1 0x4 CALLDATASIZE LT PUSH2 0x34 JUMPI PUSH1 0x0 CALLDATALOAD PUSH1 0xE0 SHR DUP1 PUSH4 0x76A54C60 EQ PUSH2 0x39 JUMPI DUP1 PUSH4 0xC2408AF3 EQ PUSH2 0x55 JUMPI DUP1 PUSH4 0xFE18D6E6 EQ PUSH2 0x5F JUMPI JUMPDEST PUSH1 0x0 DUP1 REVERT JUMPDEST PUSH2 0x53 PUSH1 0x4 DUP1 CALLDATASIZE SUB DUP2 ADD SWAP1 PUSH2 0x4E SWAP2 SWAP1 PUSH2 0x273 JUMP JUMPDEST PUSH2 0x88 JUMP JUMPDEST STOP JUMPDEST PUSH2 0x5D PUSH2 0x138 JUMP JUMPDEST STOP JUMPDEST CALLVALUE DUP1 ISZERO PUSH2 0x6B JUMPI PUSH1 0x0 DUP1 REVERT JUMPDEST POP PUSH2 0x86 PUSH1 0x4 DUP1 CALLDATASIZE SUB DUP2 ADD SWAP1 PUSH2 0x81 SWAP2 SWAP1 PUSH2 0x2D6 JUMP JUMPDEST PUSH2 0x13A JUMP JUMPDEST STOP JUMPDEST PUSH1 0x0 DUP2 PUSH20 0xFFFFFFFFFFFFFFFFFFFFFFFFFFFFFFFFFFFFFFFF AND CALLVALUE PUSH1 0x40 MLOAD PUSH2 0xAE SWAP1 PUSH2 0x334 JUMP JUMPDEST PUSH1 0x0 PUSH1 0x40 MLOAD DUP1 DUP4 SUB DUP2 DUP6 DUP8 GAS CALL SWAP3 POP POP POP RETURNDATASIZE DUP1 PUSH1 0x0 DUP2 EQ PUSH2 0xEB JUMPI PUSH1 0x40 MLOAD SWAP2 POP PUSH1 0x1F NOT PUSH1 0x3F RETURNDATASIZE ADD AND DUP3 ADD PUSH1 0x40 MSTORE RETURNDATASIZE DUP3 MSTORE RETURNDATASIZE PUSH1 0x0 PUSH1 0x20 DUP5 ADD RETURNDATACOPY PUSH2 0xF0 JUMP JUMPDEST PUSH1 0x60 SWAP2 POP JUMPDEST POP POP SWAP1 POP DUP1 PUSH2 0x134 JUMPI PUSH1 0x40 MLOAD PUSH32 0x8C379A000000000000000000000000000000000000000000000000000000000 DUP2 MSTORE PUSH1 0x4 ADD PUSH2 0x12B SWAP1 PUSH2 0x3A6 JUMP JUMPDEST PUSH1 0x40 MLOAD DUP1 SWAP2 SUB SWAP1 REVERT JUMPDEST POP POP JUMP JUMPDEST JUMP JUMPDEST PUSH1 0x0 PUSH8 0xDE0B6B3A7640000 PUSH2 0x3E8 DUP4 PUSH2 0x153 SWAP2 SWAP1 PUSH2 0x424 JUMP JUMPDEST PUSH2 0x15D SWAP2 SWAP1 PUSH2 0x455 JUMP JUMPDEST SWAP1 POP PUSH1 0x0 CALLER PUSH20 0xFFFFFFFFFFFFFFFFFFFFFFFFFFFFFFFFFFFFFFFF AND DUP3 PUSH1 0x40 MLOAD PUSH2 0x185 SWAP1 PUSH2 0x334 JUMP JUMPDEST PUSH1 0x0 PUSH1 0x40 MLOAD DUP1 DUP4 SUB DUP2 DUP6 DUP8 GAS CALL SWAP3 POP POP POP RETURNDATASIZE DUP1 PUSH1 0x0 DUP2 EQ PUSH2 0x1C2 JUMPI PUSH1 0x40 MLOAD SWAP2 POP PUSH1 0x1F NOT PUSH1 0x3F RETURNDATASIZE ADD AND DUP3 ADD PUSH1 0x40 MSTORE RETURNDATASIZE DUP3 MSTORE RETURNDATASIZE PUSH1 0x0 PUSH1 0x20 DUP5 ADD RETURNDATACOPY PUSH2 0x1C7 JUMP JUMPDEST PUSH1 0x60 SWAP2 POP JUMPDEST POP POP SWAP1 POP DUP1 PUSH2 0x20B JUMPI PUSH1 0x40 MLOAD PUSH32 0x8C379A000000000000000000000000000000000000000000000000000000000 DUP2 MSTORE PUSH1 0x4 ADD PUSH2 0x202 SWAP1 PUSH2 0x3A6 JUMP JUMPDEST PUSH1 0x40 MLOAD DUP1 SWAP2 SUB SWAP1 REVERT JUMPDEST POP POP POP JUMP JUMPDEST PUSH1 0x0 DUP1 REVERT JUMPDEST PUSH1 0x0 PUSH20 0xFFFFFFFFFFFFFFFFFFFFFFFFFFFFFFFFFFFFFFFF DUP3 AND SWAP1 POP SWAP2 SWAP1 POP JUMP JUMPDEST PUSH1 0x0 PUSH2 0x240 DUP3 PUSH2 0x215 JUMP JUMPDEST SWAP1 POP SWAP2 SWAP1 POP JUMP JUMPDEST PUSH2 0x250 DUP2 PUSH2 0x235 JUMP JUMPDEST DUP2 EQ PUSH2 0x25B JUMPI PUSH1 0x0 DUP1 REVERT JUMPDEST POP JUMP JUMPDEST PUSH1 0x0 DUP2 CALLDATALOAD SWAP1 POP PUSH2 0x26D DUP2 PUSH2 0x247 JUMP JUMPDEST SWAP3 SWAP2 POP POP JUMP JUMPDEST PUSH1 0x0 PUSH1 0x20 DUP3 DUP5 SUB SLT ISZERO PUSH2 0x289 JUMPI PUSH2 0x288 PUSH2 0x210 JUMP JUMPDEST JUMPDEST PUSH1 0x0 PUSH2 0x297 DUP5 DUP3 DUP6 ADD PUSH2 0x25E JUMP JUMPDEST SWAP2 POP POP SWAP3 SWAP2 POP POP JUMP JUMPDEST PUSH1 0x0 DUP2 SWAP1 POP SWAP2 SWAP1 POP JUMP JUMPDEST PUSH2 0x2B3 DUP2 PUSH2 0x2A0 JUMP JUMPDEST DUP2 EQ PUSH2 0x2BE JUMPI PUSH1 0x0 DUP1 REVERT JUMPDEST POP JUMP JUMPDEST PUSH1 0x0 DUP2 CALLDATALOAD SWAP1 POP PUSH2 0x2D0 DUP2 PUSH2 0x2AA JUMP JUMPDEST SWAP3 SWAP2 POP POP JUMP JUMPDEST PUSH1 0x0 PUSH1 0x20 DUP3 DUP5 SUB SLT ISZERO PUSH2 0x2EC JUMPI PUSH2 0x2EB PUSH2 0x210 JUMP JUMPDEST JUMPDEST PUSH1 0x0 PUSH2 0x2FA DUP5 DUP3 DUP6 ADD PUSH2 0x2C1 JUMP JUMPDEST SWAP2 POP POP SWAP3 SWAP2 POP POP JUMP JUMPDEST PUSH1 0x0 DUP2 SWAP1 POP SWAP3 SWAP2 POP POP JUMP JUMPDEST POP JUMP JUMPDEST PUSH1 0x0 PUSH2 0x31E PUSH1 0x0 DUP4 PUSH2 0x303 JUMP JUMPDEST SWAP2 POP PUSH2 0x329 DUP3 PUSH2 0x30E JUMP JUMPDEST PUSH1 0x0 DUP3 ADD SWAP1 POP SWAP2 SWAP1 POP JUMP JUMPDEST PUSH1 0x0 PUSH2 0x33F DUP3 PUSH2 0x311 JUMP JUMPDEST SWAP2 POP DUP2 SWAP1 POP SWAP2 SWAP1 POP JUMP JUMPDEST PUSH1 0x0 DUP3 DUP3 MSTORE PUSH1 0x20 DUP3 ADD SWAP1 POP SWAP3 SWAP2 POP POP JUMP JUMPDEST PUSH32 0x4661696C656420746F2073656E64204574686572000000000000000000000000 PUSH1 0x0 DUP3 ADD MSTORE POP JUMP JUMPDEST PUSH1 0x0 PUSH2 0x390 PUSH1 0x14 DUP4 PUSH2 0x349 JUMP JUMPDEST SWAP2 POP PUSH2 0x39B DUP3 PUSH2 0x35A JUMP JUMPDEST PUSH1 0x20 DUP3 ADD SWAP1 POP SWAP2 SWAP1 POP JUMP JUMPDEST PUSH1 0x0 PUSH1 0x20 DUP3 ADD SWAP1 POP DUP2 DUP2 SUB PUSH1 0x0 DUP4 ADD MSTORE PUSH2 0x3BF DUP2 PUSH2 0x383 JUMP JUMPDEST SWAP1 POP SWAP2 SWAP1 POP JUMP JUMPDEST PUSH32 0x4E487B7100000000000000000000000000000000000000000000000000000000 PUSH1 0x0 MSTORE PUSH1 0x12 PUSH1 0x4 MSTORE PUSH1 0x24 PUSH1 0x0 REVERT JUMPDEST PUSH32 0x4E487B7100000000000000000000000000000000000000000000000000000000 PUSH1 0x0 MSTORE PUSH1 0x11 PUSH1 0x4 MSTORE PUSH1 0x24 PUSH1 0x0 REVERT JUMPDEST PUSH1 0x0 PUSH2 0x42F DUP3 PUSH2 0x2A0 JUMP JUMPDEST SWAP2 POP PUSH2 0x43A DUP4 PUSH2 0x2A0 JUMP JUMPDEST SWAP3 POP DUP3 PUSH2 0x44A JUMPI PUSH2 0x449 PUSH2 0x3C6 JUMP JUMPDEST JUMPDEST DUP3 DUP3 DIV SWAP1 POP SWAP3 SWAP2 POP POP JUMP JUMPDEST PUSH1 0x0 PUSH2 0x460 DUP3 PUSH2 0x2A0 JUMP JUMPDEST SWAP2 POP PUSH2 0x46B DUP4 PUSH2 0x2A0 JUMP JUMPDEST SWAP3 POP DUP2 PUSH32 0xFFFFFFFFFFFFFFFFFFFFFFFFFFFFFFFFFFFFFFFFFFFFFFFFFFFFFFFFFFFFFFFF DIV DUP4 GT DUP3 ISZERO ISZERO AND ISZERO PUSH2 0x4A4 JUMPI PUSH2 0x4A3 PUSH2 0x3F5 JUMP JUMPDEST JUMPDEST DUP3 DUP3 MUL SWAP1 POP SWAP3 SWAP2 POP POP JUMP INVALID LOG2 PUSH5 0x6970667358 0x22 SLT KECCAK256 0xAB ADDRESS ADD CALLER PUSH11 0xD95E80A237ACD4CE110971 DUP13 0xE1 0xB1 ADDMOD SWAP11 PUSH16 0x9CDC6E1BED2C985E0E1B64736F6C6343 STOP ADDMOD SIGNEXTEND STOP CALLER "},"gasEstimates":{"creation":{"codeDepositCost":"250600","executionCost":"294","totalCost":"250894"},"external":{"convertToCoins()":"120","convertToEth(uint256)":"infinite","sendEth(address)":"infinite"}},"methodIdentifiers":{"convertToCoins()":"c2408af3","convertToEth(uint256)":"fe18d6e6","sendEth(address)":"76a54c60"}},"storageLayout":{"storage":[],"types":null},"userdoc":{"kind":"user","methods":{},"version":1}}